{"abi":[{"inputs":[{"internalType":"string","name":"_name","type":"string"}],"name":"AddMember","outputs":[],"stateMutability":"nonpayable","type":"function"},{"inputs":[],"name":"Claim","outputs":[],"stateMutability":"nonpayable","type":"function"},{"inputs":[{"internalType":"int256","name":"v","type":"int256"}],"name":"Vote","outputs":[],"stateMutability":"nonpayable","type":"function"},{"inputs":[{"internalType":"address","name":"_address","type":"address"},{"internalType":"uint256","name":"_i","type":"uint256"}],"name":"Withdraw","outputs":[],"stateMutability":"nonpayable","type":"function"},{"inputs":[],"name":"c","outputs":[{"internalType":"uint256","name":"","type":"uint256"}],"stateMutability":"view","type":"function"},{"inputs":[],"name":"calculate","outputs":[{"internalType":"bool","name":"","type":"bool"}],"stateMutability":"nonpayable","type":"function"},{"inputs":[],"name":"deposit","outputs":[],"stateMutability":"payable","type":"function"},{"inputs":[],"name":"getBalance","outputs":[{"internalType":"uint256","name":"","type":"uint256"}],"stateMutability":"view","type":"function"},{"inputs":[],"name":"i","outputs":[{"internalType":"uint256","name":"","type":"uint256"}],"stateMutability":"view","type":"function"},{"inputs":[{"internalType":"address","name":"","type":"address"}],"name":"members","outputs":[{"internalType":"string","name":"name","type":"string"},{"internalType":"uint256","name":"collection","type":"uint256"},{"internalType":"bool","name":"claim","type":"bool"}],"stateMutability":"view","type":"function"},{"inputs":[],"name":"ycl","outputs":[{"internalType":"bool","name":"","type":"bool"}],"stateMutability":"view","type":"function"}],"bytecode":"608060405234801561001057600080fd5b5061081e806100206000396000f3fe60806040526004361061009c5760003560e01c806396d4deb81161006457806396d4deb814610157578063ab44fe7c14610177578063c3da42b814610197578063ca77ab65146101ad578063d0e30db0146101c2578063e5aa3d58146101dd57600080fd5b806308ae4b0c146100a157806312065fe0146100d957806330f73556146100f65780633158952e14610120578063884edad914610137575b600080fd5b3480156100ad57600080fd5b506100c16100bc3660046105ae565b6101f3565b6040516100d0939291906105d0565b60405180910390f35b3480156100e557600080fd5b50475b6040519081526020016100d0565b34801561010257600080fd5b506002546101109060ff1681565b60405190151581526020016100d0565b34801561012c57600080fd5b506101356102a1565b005b34801561014357600080fd5b50610135610152366004610634565b610328565b34801561016357600080fd5b50610135610172366004610674565b610392565b34801561018357600080fd5b50610135610192366004610725565b6103cb565b3480156101a357600080fd5b506100e860015481565b3480156101b957600080fd5b506101106104a7565b61013533600090815260036020526040902034600190910155565b3480156101e957600080fd5b506100e860005481565b60036020526000908152604090208054819061020e9061073e565b80601f016020809104026020016040519081016040528092919081815260200182805461023a9061073e565b80156102875780601f1061025c57610100808354040283529160200191610287565b820191906000526020600020905b81548152906001019060200180831161026a57829003601f168201915b50505050600183015460029093015491929160ff16905083565b336000818152600360205260409020600101546102bd57600080fd5b6001600160a01b03811660009081526003602052604090206002015460ff16156102e657600080fd5b6001600160a01b0316600090815260036020526040902060029081018054600160ff19909116811790915581546001600160a81b031916610100330217179055565b6000826001600160a01b03168260405160006040518083038185875af1925050503d8060008114610375576040519150601f19603f3d011682016040523d82523d6000602084013e61037a565b606091505b5050600280546001600160a81b031916905550505050565b33600081815260036020908152604090912083516103b2928501906104f9565b506000805490806103c28361078e565b91905055505050565b60025460ff1615156001146103df57600080fd5b336000908152600360205260409020600101546104325760405162461bcd60e51b815260206004820152600c60248201526b6d7573692077706c6163696360a01b60448201526064015b60405180910390fd5b3360009081526003602052604090206002015460ff16156104865760405162461bcd60e51b815260206004820152600e60248201526d6e6965206d6f7a6520636c61696d60901b6044820152606401610429565b806001036104a4576001805490600061049e8361078e565b91905055505b50565b6000603260005460015460646104bd91906107a7565b6104c791906107c6565b11156104f35760006001556002546104ed9061010090046001600160a01b031647610328565b50600190565b50600090565b8280546105059061073e565b90600052602060002090601f016020900481019282610527576000855561056d565b82601f1061054057805160ff191683800117855561056d565b8280016001018555821561056d579182015b8281111561056d578251825591602001919060010190610552565b5061057992915061057d565b5090565b5b80821115610579576000815560010161057e565b80356001600160a01b03811681146105a957600080fd5b919050565b6000602082840312156105c057600080fd5b6105c982610592565b9392505050565b606081526000845180606084015260005b818110156105fe57602081880181015160808684010152016105e1565b81811115610610576000608083860101525b5060208301949094525090151560408201526080601f909201601f19160101919050565b6000806040838503121561064757600080fd5b61065083610592565b946020939093013593505050565b634e487b7160e01b600052604160045260246000fd5b60006020828403121561068657600080fd5b813567ffffffffffffffff8082111561069e57600080fd5b818401915084601f8301126106b257600080fd5b8135818111156106c4576106c461065e565b604051601f8201601f19908116603f011681019083821181831017156106ec576106ec61065e565b8160405282815287602084870101111561070557600080fd5b826020860160208301376000928101602001929092525095945050505050565b60006020828403121561073757600080fd5b5035919050565b600181811c9082168061075257607f821691505b60208210810361077257634e487b7160e01b600052602260045260246000fd5b50919050565b634e487b7160e01b600052601160045260246000fd5b6000600182016107a0576107a0610778565b5060010190565b60008160001904831182151516156107c1576107c1610778565b500290565b6000826107e357634e487b7160e01b600052601260045260246000fd5b50049056fea2646970667358221220d77b107022a99a611fe2aea795a00c1c668b504d483ef04fe06539234a892e8064736f6c634300080d0033","bytecodeSha1":"a511dbcdb14d70b0935614be882ff9962b654649","compiler":{"evm_version":"istanbul","optimizer":{"enabled":true,"runs":200},"version":"0.8.13+commit.abaa5c0e"},"contractName":"Insurance","language":"Solidity","natspec":{"kind":"dev","methods":{},"version":1},"opcodes":"PUSH1 0x80 PUSH1 0x40 MSTORE PUSH1 0x4 CALLDATASIZE LT PUSH2 0x9C JUMPI PUSH1 0x0 CALLDATALOAD PUSH1 0xE0 SHR DUP1 PUSH4 0x96D4DEB8 GT PUSH2 0x64 JUMPI DUP1 PUSH4 0x96D4DEB8 EQ PUSH2 0x157 JUMPI DUP1 PUSH4 0xAB44FE7C EQ PUSH2 0x177 JUMPI DUP1 PUSH4 0xC3DA42B8 EQ PUSH2 0x197 JUMPI DUP1 PUSH4 0xCA77AB65 EQ PUSH2 0x1AD JUMPI DUP1 PUSH4 0xD0E30DB0 EQ PUSH2 0x1C2 JUMPI DUP1 PUSH4 0xE5AA3D58 EQ PUSH2 0x1DD JUMPI PUSH1 0x0 DUP1 REVERT JUMPDEST DUP1 PUSH4 0x8AE4B0C EQ PUSH2 0xA1 JUMPI DUP1 PUSH4 0x12065FE0 EQ PUSH2 0xD9 JUMPI DUP1 PUSH4 0x30F73556 EQ PUSH2 0xF6 JUMPI DUP1 PUSH4 0x3158952E EQ PUSH2 0x120 JUMPI DUP1 PUSH4 0x884EDAD9 EQ PUSH2 0x137 JUMPI JUMPDEST PUSH1 0x0 DUP1 REVERT JUMPDEST CALLVALUE DUP1 ISZERO PUSH2 0xAD JUMPI PUSH1 0x0 DUP1 REVERT JUMPDEST POP PUSH2 0xC1 PUSH2 0xBC CALLDATASIZE PUSH1 0x4 PUSH2 0x5AE JUMP JUMPDEST PUSH2 0x1F3 JUMP JUMPDEST PUSH1 0x40 MLOAD PUSH2 0xD0 SWAP4 SWAP3 SWAP2 SWAP1 PUSH2 0x5D0 JUMP JUMPDEST PUSH1 0x40 MLOAD DUP1 SWAP2 SUB SWAP1 RETURN JUMPDEST CALLVALUE DUP1 ISZERO PUSH2 0xE5 JUMPI PUSH1 0x0 DUP1 REVERT JUMPDEST POP SELFBALANCE JUMPDEST PUSH1 0x40 MLOAD SWAP1 DUP2 MSTORE PUSH1 0x20 ADD PUSH2 0xD0 JUMP JUMPDEST CALLVALUE DUP1 ISZERO PUSH2 0x102 JUMPI PUSH1 0x0 DUP1 REVERT JUMPDEST POP PUSH1 0x2 SLOAD PUSH2 0x110 SWAP1 PUSH1 0xFF AND DUP2 JUMP JUMPDEST PUSH1 0x40 MLOAD SWAP1 ISZERO ISZERO DUP2 MSTORE PUSH1 0x20 ADD PUSH2 0xD0 JUMP JUMPDEST CALLVALUE DUP1 ISZERO PUSH2 0x12C JUMPI PUSH1 0x0 DUP1 REVERT JUMPDEST POP PUSH2 0x135 PUSH2 0x2A1 JUMP JUMPDEST STOP JUMPDEST CALLVALUE DUP1 ISZERO PUSH2 0x143 JUMPI PUSH1 0x0 DUP1 REVERT JUMPDEST POP PUSH2 0x135 PUSH2 0x152 CALLDATASIZE PUSH1 0x4 PUSH2 0x634 JUMP JUMPDEST PUSH2 0x328 JUMP JUMPDEST CALLVALUE DUP1 ISZERO PUSH2 0x163 JUMPI PUSH1 0x0 DUP1 REVERT JUMPDEST POP PUSH2 0x135 PUSH2 0x172 CALLDATASIZE PUSH1 0x4 PUSH2 0x674 JUMP JUMPDEST PUSH2 0x392 JUMP JUMPDEST CALLVALUE DUP1 ISZERO PUSH2 0x183 JUMPI PUSH1 0x0 DUP1 REVERT JUMPDEST POP PUSH2 0x135 PUSH2 0x192 CALLDATASIZE PUSH1 0x4 PUSH2 0x725 JUMP JUMPDEST PUSH2 0x3CB JUMP JUMPDEST CALLVALUE DUP1 ISZERO PUSH2 0x1A3 JUMPI PUSH1 0x0 DUP1 REVERT JUMPDEST POP PUSH2 0xE8 PUSH1 0x1 SLOAD DUP2 JUMP JUMPDEST CALLVALUE DUP1 ISZERO PUSH2 0x1B9 JUMPI PUSH1 0x0 DUP1 REVERT JUMPDEST POP PUSH2 0x110 PUSH2 0x4A7 JUMP JUMPDEST PUSH2 0x135 CALLER PUSH1 0x0 SWAP1 DUP2 MSTORE PUSH1 0x3 PUSH1 0x20 MSTORE PUSH1 0x40 SWAP1 KECCAK256 CALLVALUE PUSH1 0x1 SWAP1 SWAP2 ADD SSTORE JUMP JUMPDEST CALLVALUE DUP1 ISZERO PUSH2 0x1E9 JUMPI PUSH1 0x0 DUP1 REVERT JUMPDEST POP PUSH2 0xE8 PUSH1 0x0 SLOAD DUP2 JUMP JUMPDEST PUSH1 0x3 PUSH1 0x20 MSTORE PUSH1 0x0 SWAP1 DUP2 MSTORE PUSH1 0x40 SWAP1 KECCAK256 DUP1 SLOAD DUP2 SWAP1 PUSH2 0x20E SWAP1 PUSH2 0x73E JUMP JUMPDEST DUP1 PUSH1 0x1F ADD PUSH1 0x20 DUP1 SWAP2 DIV MUL PUSH1 0x20 ADD PUSH1 0x40 MLOAD SWAP1 DUP2 ADD PUSH1 0x40 MSTORE DUP1 SWAP3 SWAP2 SWAP1 DUP2 DUP2 MSTORE PUSH1 0x20 ADD DUP3 DUP1 SLOAD PUSH2 0x23A SWAP1 PUSH2 0x73E JUMP JUMPDEST DUP1 ISZERO PUSH2 0x287 JUMPI DUP1 PUSH1 0x1F LT PUSH2 0x25C JUMPI PUSH2 0x100 DUP1 DUP4 SLOAD DIV MUL DUP4 MSTORE SWAP2 PUSH1 0x20 ADD SWAP2 PUSH2 0x287 JUMP JUMPDEST DUP3 ADD SWAP2 SWAP1 PUSH1 0x0 MSTORE PUSH1 0x20 PUSH1 0x0 KECCAK256 SWAP1 JUMPDEST DUP2 SLOAD DUP2 MSTORE SWAP1 PUSH1 0x1 ADD SWAP1 PUSH1 0x20 ADD DUP1 DUP4 GT PUSH2 0x26A JUMPI DUP3 SWAP1 SUB PUSH1 0x1F AND DUP3 ADD SWAP2 JUMPDEST POP POP POP POP PUSH1 0x1 DUP4 ADD SLOAD PUSH1 0x2 SWAP1 SWAP4 ADD SLOAD SWAP2 SWAP3 SWAP2 PUSH1 0xFF AND SWAP1 POP DUP4 JUMP JUMPDEST CALLER PUSH1 0x0 DUP2 DUP2 MSTORE PUSH1 0x3 PUSH1 0x20 MSTORE PUSH1 0x40 SWAP1 KECCAK256 PUSH1 0x1 ADD SLOAD PUSH2 0x2BD JUMPI PUSH1 0x0 DUP1 REVERT JUMPDEST PUSH1 0x1 PUSH1 0x1 PUSH1 0xA0 SHL SUB DUP2 AND PUSH1 0x0 SWAP1 DUP2 MSTORE PUSH1 0x3 PUSH1 0x20 MSTORE PUSH1 0x40 SWAP1 KECCAK256 PUSH1 0x2 ADD SLOAD PUSH1 0xFF AND ISZERO PUSH2 0x2E6 JUMPI PUSH1 0x0 DUP1 REVERT JUMPDEST PUSH1 0x1 PUSH1 0x1 PUSH1 0xA0 SHL SUB AND PUSH1 0x0 SWAP1 DUP2 MSTORE PUSH1 0x3 PUSH1 0x20 MSTORE PUSH1 0x40 SWAP1 KECCAK256 PUSH1 0x2 SWAP1 DUP2 ADD DUP1 SLOAD PUSH1 0x1 PUSH1 0xFF NOT SWAP1 SWAP2 AND DUP2 OR SWAP1 SWAP2 SSTORE DUP2 SLOAD PUSH1 0x1 PUSH1 0x1 PUSH1 0xA8 SHL SUB NOT AND PUSH2 0x100 CALLER MUL OR OR SWAP1 SSTORE JUMP JUMPDEST PUSH1 0x0 DUP3 PUSH1 0x1 PUSH1 0x1 PUSH1 0xA0 SHL SUB AND DUP3 PUSH1 0x40 MLOAD PUSH1 0x0 PUSH1 0x40 MLOAD DUP1 DUP4 SUB DUP2 DUP6 DUP8 GAS CALL SWAP3 POP POP POP RETURNDATASIZE DUP1 PUSH1 0x0 DUP2 EQ PUSH2 0x375 JUMPI PUSH1 0x40 MLOAD SWAP2 POP PUSH1 0x1F NOT PUSH1 0x3F RETURNDATASIZE ADD AND DUP3 ADD PUSH1 0x40 MSTORE RETURNDATASIZE DUP3 MSTORE RETURNDATASIZE PUSH1 0x0 PUSH1 0x20 DUP5 ADD RETURNDATACOPY PUSH2 0x37A JUMP JUMPDEST PUSH1 0x60 SWAP2 POP JUMPDEST POP POP PUSH1 0x2 DUP1 SLOAD PUSH1 0x1 PUSH1 0x1 PUSH1 0xA8 SHL SUB NOT AND SWAP1 SSTORE POP POP POP POP JUMP JUMPDEST CALLER PUSH1 0x0 DUP2 DUP2 MSTORE PUSH1 0x3 PUSH1 0x20 SWAP1 DUP2 MSTORE PUSH1 0x40 SWAP1 SWAP2 KECCAK256 DUP4 MLOAD PUSH2 0x3B2 SWAP3 DUP6 ADD SWAP1 PUSH2 0x4F9 JUMP JUMPDEST POP PUSH1 0x0 DUP1 SLOAD SWAP1 DUP1 PUSH2 0x3C2 DUP4 PUSH2 0x78E JUMP JUMPDEST SWAP2 SWAP1 POP SSTORE POP POP POP JUMP JUMPDEST PUSH1 0x2 SLOAD PUSH1 0xFF AND ISZERO ISZERO PUSH1 0x1 EQ PUSH2 0x3DF JUMPI PUSH1 0x0 DUP1 REVERT JUMPDEST CALLER PUSH1 0x0 SWAP1 DUP2 MSTORE PUSH1 0x3 PUSH1 0x20 MSTORE PUSH1 0x40 SWAP1 KECCAK256 PUSH1 0x1 ADD SLOAD PUSH2 0x432 JUMPI PUSH1 0x40 MLOAD PUSH3 0x461BCD PUSH1 0xE5 SHL DUP2 MSTORE PUSH1 0x20 PUSH1 0x4 DUP3 ADD MSTORE PUSH1 0xC PUSH1 0x24 DUP3 ADD MSTORE PUSH12 0x6D7573692077706C61636963 PUSH1 0xA0 SHL PUSH1 0x44 DUP3 ADD MSTORE PUSH1 0x64 ADD JUMPDEST PUSH1 0x40 MLOAD DUP1 SWAP2 SUB SWAP1 REVERT JUMPDEST CALLER PUSH1 0x0 SWAP1 DUP2 MSTORE PUSH1 0x3 PUSH1 0x20 MSTORE PUSH1 0x40 SWAP1 KECCAK256 PUSH1 0x2 ADD SLOAD PUSH1 0xFF AND ISZERO PUSH2 0x486 JUMPI PUSH1 0x40 MLOAD PUSH3 0x461BCD PUSH1 0xE5 SHL DUP2 MSTORE PUSH1 0x20 PUSH1 0x4 DUP3 ADD MSTORE PUSH1 0xE PUSH1 0x24 DUP3 ADD MSTORE PUSH14 0x6E6965206D6F7A6520636C61696D PUSH1 0x90 SHL PUSH1 0x44 DUP3 ADD MSTORE PUSH1 0x64 ADD PUSH2 0x429 JUMP JUMPDEST DUP1 PUSH1 0x1 SUB PUSH2 0x4A4 JUMPI PUSH1 0x1 DUP1 SLOAD SWAP1 PUSH1 0x0 PUSH2 0x49E DUP4 PUSH2 0x78E JUMP JUMPDEST SWAP2 SWAP1 POP SSTORE POP JUMPDEST POP JUMP JUMPDEST PUSH1 0x0 PUSH1 0x32 PUSH1 0x0 SLOAD PUSH1 0x1 SLOAD PUSH1 0x64 PUSH2 0x4BD SWAP2 SWAP1 PUSH2 0x7A7 JUMP JUMPDEST PUSH2 0x4C7 SWAP2 SWAP1 PUSH2 0x7C6 JUMP JUMPDEST GT ISZERO PUSH2 0x4F3 JUMPI PUSH1 0x0 PUSH1 0x1 SSTORE PUSH1 0x2 SLOAD PUSH2 0x4ED SWAP1 PUSH2 0x100 SWAP1 DIV PUSH1 0x1 PUSH1 0x1 PUSH1 0xA0 SHL SUB AND SELFBALANCE PUSH2 0x328 JUMP JUMPDEST POP PUSH1 0x1 SWAP1 JUMP JUMPDEST POP PUSH1 0x0 SWAP1 JUMP JUMPDEST DUP3 DUP1 SLOAD PUSH2 0x505 SWAP1 PUSH2 0x73E JUMP JUMPDEST SWAP1 PUSH1 0x0 MSTORE PUSH1 0x20 PUSH1 0x0 KECCAK256 SWAP1 PUSH1 0x1F ADD PUSH1 0x20 SWAP1 DIV DUP2 ADD SWAP3 DUP3 PUSH2 0x527 JUMPI PUSH1 0x0 DUP6 SSTORE PUSH2 0x56D JUMP JUMPDEST DUP3 PUSH1 0x1F LT PUSH2 0x540 JUMPI DUP1 MLOAD PUSH1 0xFF NOT AND DUP4 DUP1 ADD OR DUP6 SSTORE PUSH2 0x56D JUMP JUMPDEST DUP3 DUP1 ADD PUSH1 0x1 ADD DUP6 SSTORE DUP3 ISZERO PUSH2 0x56D JUMPI SWAP2 DUP3 ADD JUMPDEST DUP3 DUP2 GT ISZERO PUSH2 0x56D JUMPI DUP3 MLOAD DUP3 SSTORE SWAP2 PUSH1 0x20 ADD SWAP2 SWAP1 PUSH1 0x1 ADD SWAP1 PUSH2 0x552 JUMP JUMPDEST POP PUSH2 0x579 SWAP3 SWAP2 POP PUSH2 0x57D JUMP JUMPDEST POP SWAP1 JUMP JUMPDEST JUMPDEST DUP1 DUP3 GT ISZERO PUSH2 0x579 JUMPI PUSH1 0x0 DUP2 SSTORE PUSH1 0x1 ADD PUSH2 0x57E JUMP JUMPDEST DUP1 CALLDATALOAD PUSH1 0x1 PUSH1 0x1 PUSH1 0xA0 SHL SUB DUP2 AND DUP2 EQ PUSH2 0x5A9 JUMPI PUSH1 0x0 DUP1 REVERT JUMPDEST SWAP2 SWAP1 POP JUMP JUMPDEST PUSH1 0x0 PUSH1 0x20 DUP3 DUP5 SUB SLT ISZERO PUSH2 0x5C0 JUMPI PUSH1 0x0 DUP1 REVERT JUMPDEST PUSH2 0x5C9 DUP3 PUSH2 0x592 JUMP JUMPDEST SWAP4 SWAP3 POP POP POP JUMP JUMPDEST PUSH1 0x60 DUP2 MSTORE PUSH1 0x0 DUP5 MLOAD DUP1 PUSH1 0x60 DUP5 ADD MSTORE PUSH1 0x0 JUMPDEST DUP2 DUP2 LT ISZERO PUSH2 0x5FE JUMPI PUSH1 0x20 DUP2 DUP9 ADD DUP2 ADD MLOAD PUSH1 0x80 DUP7 DUP5 ADD ADD MSTORE ADD PUSH2 0x5E1 JUMP JUMPDEST DUP2 DUP2 GT ISZERO PUSH2 0x610 JUMPI PUSH1 0x0 PUSH1 0x80 DUP4 DUP7 ADD ADD MSTORE JUMPDEST POP PUSH1 0x20 DUP4 ADD SWAP5 SWAP1 SWAP5 MSTORE POP SWAP1 ISZERO ISZERO PUSH1 0x40 DUP3 ADD MSTORE PUSH1 0x80 PUSH1 0x1F SWAP1 SWAP3 ADD PUSH1 0x1F NOT AND ADD ADD SWAP2 SWAP1 POP JUMP JUMPDEST PUSH1 0x0 DUP1 PUSH1 0x40 DUP4 DUP6 SUB SLT ISZERO PUSH2 0x647 JUMPI PUSH1 0x0 DUP1 REVERT JUMPDEST PUSH2 0x650 DUP4 PUSH2 0x592 JUMP JUMPDEST SWAP5 PUSH1 0x20 SWAP4 SWAP1 SWAP4 ADD CALLDATALOAD SWAP4 POP POP POP JUMP JUMPDEST PUSH4 0x4E487B71 PUSH1 0xE0 SHL PUSH1 0x0 MSTORE PUSH1 0x41 PUSH1 0x4 MSTORE PUSH1 0x24 PUSH1 0x0 REVERT JUMPDEST PUSH1 0x0 PUSH1 0x20 DUP3 DUP5 SUB SLT ISZERO PUSH2 0x686 JUMPI PUSH1 0x0 DUP1 REVERT JUMPDEST DUP2 CALLDATALOAD PUSH8 0xFFFFFFFFFFFFFFFF DUP1 DUP3 GT ISZERO PUSH2 0x69E JUMPI PUSH1 0x0 DUP1 REVERT JUMPDEST DUP2 DUP5 ADD SWAP2 POP DUP5 PUSH1 0x1F DUP4 ADD SLT PUSH2 0x6B2 JUMPI PUSH1 0x0 DUP1 REVERT JUMPDEST DUP2 CALLDATALOAD DUP2 DUP2 GT ISZERO PUSH2 0x6C4 JUMPI PUSH2 0x6C4 PUSH2 0x65E JUMP JUMPDEST PUSH1 0x40 MLOAD PUSH1 0x1F DUP3 ADD PUSH1 0x1F NOT SWAP1 DUP2 AND PUSH1 0x3F ADD AND DUP2 ADD SWAP1 DUP4 DUP3 GT DUP2 DUP4 LT OR ISZERO PUSH2 0x6EC JUMPI PUSH2 0x6EC PUSH2 0x65E JUMP JUMPDEST DUP2 PUSH1 0x40 MSTORE DUP3 DUP2 MSTORE DUP8 PUSH1 0x20 DUP5 DUP8 ADD ADD GT ISZERO PUSH2 0x705 JUMPI PUSH1 0x0 DUP1 REVERT JUMPDEST DUP3 PUSH1 0x20 DUP7 ADD PUSH1 0x20 DUP4 ADD CALLDATACOPY PUSH1 0x0 SWAP3 DUP2 ADD PUSH1 0x20 ADD SWAP3 SWAP1 SWAP3 MSTORE POP SWAP6 SWAP5 POP POP POP POP POP JUMP JUMPDEST PUSH1 0x0 PUSH1 0x20 DUP3 DUP5 SUB SLT ISZERO PUSH2 0x737 JUMPI PUSH1 0x0 DUP1 REVERT JUMPDEST POP CALLDATALOAD SWAP2 SWAP1 POP JUMP JUMPDEST PUSH1 0x1 DUP2 DUP2 SHR SWAP1 DUP3 AND DUP1 PUSH2 0x752 JUMPI PUSH1 0x7F DUP3 AND SWAP2 POP JUMPDEST PUSH1 0x20 DUP3 LT DUP2 SUB PUSH2 0x772 JUMPI PUSH4 0x4E487B71 PUSH1 0xE0 SHL PUSH1 0x0 MSTORE PUSH1 0x22 PUSH1 0x4 MSTORE PUSH1 0x24 PUSH1 0x0 REVERT JUMPDEST POP SWAP2 SWAP1 POP JUMP JUMPDEST PUSH4 0x4E487B71 PUSH1 0xE0 SHL PUSH1 0x0 MSTORE PUSH1 0x11 PUSH1 0x4 MSTORE PUSH1 0x24 PUSH1 0x0 REVERT JUMPDEST PUSH1 0x0 PUSH1 0x1 DUP3 ADD PUSH2 0x7A0 JUMPI PUSH2 0x7A0 PUSH2 0x778 JUMP JUMPDEST POP PUSH1 0x1 ADD SWAP1 JUMP JUMPDEST PUSH1 0x0 DUP2 PUSH1 0x0 NOT DIV DUP4 GT DUP3 ISZERO ISZERO AND ISZERO PUSH2 0x7C1 JUMPI PUSH2 0x7C1 PUSH2 0x778 JUMP JUMPDEST POP MUL SWAP1 JUMP JUMPDEST PUSH1 0x0 DUP3 PUSH2 0x7E3 JUMPI PUSH4 0x4E487B71 PUSH1 0xE0 SHL PUSH1 0x0 MSTORE PUSH1 0x12 PUSH1 0x4 MSTORE PUSH1 0x24 PUSH1 0x0 REVERT JUMPDEST POP DIV SWAP1 JUMP INVALID LOG2 PUSH5 0x6970667358 0x22 SLT KECCAK256 0xD7 PUSH28 0x107022A99A611FE2AEA795A00C1C668B504D483EF04FE06539234A89 0x2E DUP1 PUSH5 0x736F6C6343 STOP ADDMOD 0xD STOP CALLER ","sha1":"49cff54bfdf22b93e690417117bdf7830a51a7b2","source":"pragma solidity ^0.8.0;\n\n//import \"@chainlink/contracts/src/v0.6/interfaces/AggregatorV3Interface.sol\";\n//import \"@chainlink/contracts/src/v0.6/vendor/SafeMathChainlink.sol\";\n\n\ncontract Insurance {\n\n//using SafeMathChainlink for uint256;\n//AggregatorV3Interface internal priceFeed = AggregatorV3Interface(0x9326BFA02ADD2366b30bacB125260Af641031331);    \nstruct Person {\n    string name;\n    uint collection;\n    bool claim;\n}\nuint public i;\nuint public c;\n//mapping (bool => adresses) clamises;\nbool public ycl;\naddress claimed;\n\n//function getLatestPrice() public view returns (int) {\n   // (\n  //      uint80 roundID, \n  //      int price,\n  //      uint startedAt,\n  //      uint timeStamp,\n  //      uint80 answeredInRound\n    //) = priceFeed.latestRoundData();\n   // return price/10**8;\n//}\n  //  function ETH2dollars (uint _i) public view returns (uint) {\n    //    return _i*uint(getLatestPrice())/100000000;\n   // }\nmapping (address => Person) public members;\nfunction AddMember (string memory _name) public {\n\n    address _address;\n    _address=msg.sender;\n    members[_address].name = _name;\n    i++;\n}\n\n\n\nfunction deposit () public payable {\n   //require (ETH2dollars(msg.value) > 100, \"at least 100 $\");\n   members[msg.sender].collection=msg.value;\n}\nfunction getBalance () public view returns(uint256) {\n    return address(this).balance;\n}\n\nfunction Claim ()  public  {\n    \n    address _address;\n    _address=msg.sender;\n    require(members[_address].collection > 0);\n    require(members[_address].claim == false);\n    members[_address].claim = true;\n    ycl=true;\n    claimed=msg.sender;\n    \n   \n    \n}\nstruct Voter {\n    bool voted;\n    address _address;\n}\n//msg.sender\nfunction Vote ( int  v) public {\n    \n    require(ycl==true);\n    //require (clamises[_address] == false);\n    require(members[msg.sender].collection > 0, \"musi wplacic\");\n    require(members[msg.sender].claim == false , \"nie moze claim\");\n    if (v==1) {\n        c++;\n    }\n}   \n    function calculate () public  returns (bool) \n    { if (c*100/i > 50  ) {\n        c=0;\n        Withdraw (claimed, address(this).balance);\n        return true;\n    }\n\n    else return false;\n}\nfunction Withdraw (address _address, uint _i) public  {\n    (bool success, ) = _address.call{value: _i}(\"\");\n    claimed=address(0x0);\n    \n    ycl=false;\n}\n\n\n}","sourcePath":"contracts/insur.sol","type":"contract","deployment":{"address":"0xe07834aca97f8dfd74a1C6828225a2afE36e9E49","chainid":"42","blockHeight":31527506}}